:20000000003601201DC0030041E6030041E6030041E6030041E6030041E6030041E60300AD
:1C00200041E6030041E6030041E6030041E6030041E6030041E6030099BA010074
:20003C002DE9F047A8B0044600784D2800F26180A678DFE810F04E00E400B6032904FA04FA
:20005C00E400E4004603C302AD03E400E400E400E400E400E4002D059B02E400E4007B0193
:20007C005E015301E4001E059002E400A3057503E40004045603BE05E1035905E400E40002
:20009C00E400E400E4001106E40033019F031103E400E400E400E400E400E400E400E40093
:2000BC00E400E400E400E400E400F5055A032B03E400DE05E400E4000801E400CC05E400FA
:2000DC00C003E400E400E400E400E7004501FD0023066068002801F06482407818B1FF20F7
:2000FC00032139F09FFC42F07BFE894801210160FEE7A0F1A0014B2900F27080DFE811F0C8
:20011C004C00D106E80636073F07FB06910659068807900717066306F005B6067407AB07AE
:20013C00E5056C07DA07DF057F072208E507CA05180836087F007F00C8067F007F007F006F
:20015C007F007F007F007F007F007F007F007F007F007F007F007F007F007F007F007F0093
:20017C007F007F007F007F007F007F007F007F007F007F007F007F007F007F007F007F0073
:20019C007F0053067F007F00B9077F002D087F007F007F007F0027086068002801F001826A
:2001BC00A168002901F0FD8101783A20002908BF3B200BAD002111222B4641F04FFC002843
:2001DC00607041F0F081D4E901109DF82C204270097800F8021B691C1022C7E2F9380328DE
:2001FC000DD8DFE810F004000400CE07DC0960681221002808BF0221617001F0D4B91220E7
:20021C0001F0D0B96068002801F0CB81A168002901F0C78100780BA93FF0B5F90020BDF8D2
:20023C002C206070D4E90101A1F8012000F01FBF6068002801F0B581017A427A002330F0AE
:20025C00A3FD01F0AFB96068002801F0AA8102214FF6FC728DF8341001888A1A032A11D89B
:20027C00022A0FD042F004FAADF82C0060680021837AC27A0091811C0BA839F06DF86070F5
:20029C0060680188ADF82C10837AC27A00210091811C0BA839F060F801F084B9616802203B
:2002BC00002901F07F818DF83400002308880A794988ADF82C000BA83EF030FE01F072B94C
:2002DC006068002801F06D81B0F80110ADF82C1000780BA940F0E8F901F064B9616800295C
:2002FC0001F05F8108888A7801212CF083FE01F059B96068002801F054818178002900F0F5
:20031C005387C2780321002A08BF012100F04DBF7C052043059A03007D1B0400F87A0020C6
:20033C004920040018390020C68E00206768002F01F0378142F075FC0546002800F03E87DD
:20035C00387828B1E988787821F001010843E880B87830B1E988F87821F0020141EA400060
:20037C00E880387930B1E988787921F0040141EA8000E880B87930B1E988F87921F00801CE
:20039C0041EAC000E880387A30B1E988787A21F0100141EA0010E880B87A30B1E988F87A3D
:2003BC0021F0200141EA4010E880387B30B1E988787B21F0400141EA8010E880B87B28B193
:2003DC00A968F87B21F001010843A860387C38B1A968787C21F00201002818BF0231A96026
:2003FC00B87C38B1A968F87C21F00401002818BF0431A960B87D38B1A968F87D21F0100126
:20041C00002818BF1031A960387E38B1A968787E21F02001002818BF2031A960B87E38B127
:20043C00A968F87E21F04001002818BF4031A96097F8220048B1A96897F8230021F48061EB
:20045C00002818BF01F58061A96097F8260048B1A96897F8270021F40051002818BF01F5D1
:20047C000051A96097F8280048B1A96897F8290021F48041002818BF01F58041A96097F869
:20049C002A0048B1A96897F82B0021F40041002818BF01F50041A96097F82E0048B1A968F6
:2004BC0097F82F0021F40031002818BF01F50031A96097F8340048B1A96897F8350021F447
:2004DC008011002818BF01F58011A96097F8380048B1A96897F8390021F48001002818BFB2
:2004FC0001F58001A96097F83C0048B1A96897F83D0021F08071002818BF01F18071A960D2
:20051C0097F83E0048B1A96897F83F0021F00071002818BF01F10071A96097F8400048B165
:20053C00A96897F8410021F00061002818BF01F10061A96097F84200002801F0348097F8C4
:20055C004310A86800290CBF20F0805040F08050A86001F028B86068002801F022800021CB
:20057C00617000783AF044F901F01DB86068002801F01780304640F0DBFD0546002800F090
:20059C002F86E8885FF8741240F00C00E880022041F07EF95FF88012032041F079F940F2EE
:2005BC000110ADF831006068016800790B918DF830000BA832F034FD00F0F4BF60680028A4
:2005DC0000F0EF87002161702A2142F075FC5FF8B45260685FF8B8620822E98A0180A98CD0
:2005FC008181698BC1825FF8C4120978817205F139010E30B047676841F0A0F80146B81CED
:20061C000822B047606805F11C0108221830B0476068297E012280F823105FF8F41280F847
:20063C0020208978CB0718BF80F824208A0744BF012280F825204A0744BF012280F826204F
:20065C000A0744BF012280F82720490644BF012180F8281000F0A7BF65680220002D00F002
:20067C00A1878DF834002E7B00272888AB79AA886988ADF82C00A8682D69CDE90006CDE9CD
:20069C0002570BA824F0C2FD00F08CBF6068002800F0878702218DF834100188ADF82C10E0
:2006BC00817B4A1E8DF82410022A05D3032900F050870F2940F05387018AADF81C1000F07C
:2006DC004EBF6068002800F06C8790F9005028463FF0DCFFA068002800F06187057000F060
:2006FC005EBF40F0F5FC00F05DBF6168002900F0588702208DF83400887B0D88421E8DF87B
:20071C002400022AADF82C5005D3032800F034870F2840F03687088AADF81C0000F031BF47
:20073C006068002800F03D87A068002800F039870026C0E900666068418800783DF01EFE92
:20075C00002800F0EC8666700546A16800880880A8780028887000F0268742F055FDA1684F
:20077C000028486000F01F878A78E91C41F05EFC00F019BF61680220002900F013878DF87A
:20079C003400052208884988ADF82C000BA870E26068002800F00587007842F007F900F0A5
:2007BC00FEBE6068002800F0FC8603210171BD49016000F0F4BE6168002900F0F286CA7AC2
:2007DC00887A0B7B4D7B002A18BF40F00200002B18BF40F00400002D18BF40F008008A7B03
:2007FC00002A18BF40F040000023C2B20888023138F094FD00F0D6BE6068002800F0D1869E
:20081C00007840F0A1FC002800F0CB860546007B3BF000F80028607040F0C586A24841681F
:20083C00002900F0C08600220C462346002C00F0ED86AB4200F0EA861C681A46F5E76068FC
:20085C00002800F0AE860021CDF83A10CDF83610CDF83210CDF82E1002794188ADF82C10C6
:20087C005AB1816849B10F2A28BF0F228DF82E200BA8033041F0DAFB606800780BA9012247
:20089C0030F0B4FA00F08EBE6268002A00F08986A168002900F0858600206070107838B1B1
:2008BC000120087081480078002818BF01204870907838B1012008717D480078002818BFA3
:2008DC0001204871D07848B1002041F0B3F8D4E90121C0F34030C87101208871107938B31C
:2008FC000120087201F10C0041F0A4F8A16808827048007802281BD16F480078C0B96F4D39
:20091C000120A847A16848610220A847A16888610420A847A168C8610820A847A168086227
:20093C001020A847A16848622020A847A1688862606842792AB1012281F82C20604A12881D
:20095C00CA8582792AB1012281F830205D4A12884A86C2792AB1012281F834205A4A128815
:20097C00CA86027A32B1012281F83820574A127881F83920427A32B1012281F83A20544A88
:20099C00127881F83B20827A32B1012281F83C20504A127881F83D20C27A32B1012281F851
:2009BC003E204D4A127881F83F20027B32B1012281F84020494A127881F84120427B32B1D1
:2009DC00012281F84220464A127881F84320827B32B1012281F84420424A127881F8452033
:2009FC00C27B002A00F02F8601201122002681F846000BAD812000212B4641F02FF89DF8BE
:200A1C002C00A168002881F8470000F0088642F0FBFBA1680028886400F010869DF82C2073
:200A3C00691C41F003FB00F00DBE6068002800F0B88500216170017839B140781B4A01217A
:200A5C001070632041F0A6FF6068017939B14079174A012110706D2041F09CFF606881799E
:200A7C00002900F0D283C1794FF4005015F088FEDFE3022060706068002800F0948541881E
:200A9C00007837F03DFD002840F0898500F08BBD6068002800F085850088002119F01EFD0C
:200ABC0000F081BD01000206A4380020C03A00209591002040380020C53A002051DF02009E
:200ADC004E3A00204A3A0020523A0020B63A0020B33A0020A93A0020B43A0020BF3A0020BB
:200AFC00AA3A0020C23A00206668002E00F05985357D284640F028FB002800F05285307FDF
:200B1C00102141EA4007717F002908BF4700B07F002818BF47F00807F07F002818BF47F0D6
:200B3C00200796F82000002818BF47F0400796F821000028284618BF67F07F07D6F81880E8
:200B5C0041F0FCFA002800F02C8505466068827A01788DF8352082898DF83410ADF8362058
:200B7C004A1E022A05D3032900F014860F2940F016864188ADF82C1000F011BE60680028DA
:200B9C0000F00F85A168002900F00B850021617000783FF0B3FDA1680870400042F034FB98
:200BBC000146D4E90102516000783EF0EDF900F0FABC6568002D00F0F4842F78384640F078
:200BDC00C3FA002800F03D84D02000F0EBBC62680220002A00F0E6848DF8340000231088F8
:200BFC009178D278ADF82C000BA832F0A5FB00F0D9BC61680220002900F0D4848DF83400A6
:200C1C003122012331F8020BADF82C000020CDE90010DFF8400D0BA935F0AAFD00F0C2BC42
:200C3C0065680220002D00F0BD848DF83400EE682F7C4FF0000C2888EB8869882A79ADF8EA
:200C5C002C00287A6D698DE8C100CDE9035C0BA824F084FA00F0A6BC61680220002900F0EE
:200C7C00A1840A888DF834004988ADF82C200BA8022200233FF0E0FC00F094BC60680028F1
:200C9C0000F08F848178C278008800233BF0B0FD00F088BCA068002800F08384DFF8A41C8D
:200CBC00D1F80D20C0F80D2091E82C0085600D7BC0E900230573497C417400F070BC002031
:200CDC00607039F0CDFD00F06EBC6068002800F0688400216170007813F054F900F063BC86
:200CFC006068002800F05D8401884088ADF81C00ADF82C100BA9532036F0C8FC07A95020F3
:200D1C0036F0C4FC0DF11B01E1203DF023FB60689DF81B100079814200F041848DF81B0052
:200D3C000DF11B01E12036F0B1FC00F038BC6168002900F02E82DFF8205C087885F82600BD
:200D5C0095F872204888E882087A2876488968834868A8628889A884887B85F83800C87B50
:200D7C006871087CE8704869286388696863087F824202D036F0D0FA616805F139001D3157
:200D9C0042F06CF995F82600082840F00A82DFF8C82B2120742141F0FDFD002002210025CE
:200DBC0038F040FEFEE10020DFF8941B6070E07889E16168002900F0F4830A8848880431AA
:200DDC003CF058FBEEE36068002800F0E481007836F0A2FA6168DFF8805B287E497888427C
:200DFC0012D029760BA9E1203DF0B4FA606841789DF82C00884207D08DF82C100BA9E1206D
:200E1C0036F044FC60684078012101FA00F0A8623EF0A6FE00260120A5F870602EF05CFCBD
:200E3C00BAE16068002800F0BC830178002900F02883DFF8700B0DF12C09002709F10808E9
:200E5C000588BD4200F0AF83BEB2042000221423CDF8009031463CF0C5FC607020B941F048
:200E7C0061FC002800F0B2830137EAE76168002900F09783DFF8D00A42F093F86068DFF89A
:200E9C00CC2A0189807A1180DFF8C41A087086E36068002800F0858300F1120133F0DEFEAA
:200EBC0080E36168002900F07C8308784A783A258B7800288DF82C2008BF3B250BA801302A
:200EDC00002B00F0E2820331102241F0AFF8DEE26668002E00F065830BA8112141F0ECFFA4
:200EFC00022060703068002800F0D782F28831792CF0C4FE56E36068002800F05283017872
:200F1C00002900F0EE82DFF89C0A0DF12C0A00250DF11C0800260AF10809CDE90955CDE938
:200F3C0007550788B74200F05D83B1B2042000221423CDF800A03CF055FC6070A0B960682E
:200F5C004946082204303FF0A5FA002800F0488355B960684146082204303FF09BFA002830
:200F7C004FF0000508BF35460136DBE76068002800F01783418800782AF0E4FB12E3616864
:200F9C00002900F00E83A068002800F00A8311F8012B00F8012B42F004F8606801780029ED
:200FBC0000F0BF82DFF8FC090BAE002506F108080788AF4200F0F382A9B204200022142366
:200FDC0000963CF00FFC607020B941F0ABFB002800F02E830135ECE76068002800F0E18293
:200FFC00007836F097FBDDE26068002800F0D982002161708178008832F0F6F9D3E2A0686A
:20101C00002800F0CE820020607041F017FD59E0DFF894094FF48071007830F0F1FABEE213
:20103C006068002800F0BD82418800883BF060FD68B9606801224188008834F049FF60680B
:20105C00418800883BF054FD002800F0EF82616809794170A3E2A068002800F0A282002039
:20107C00607035F015FC002800F05582A168007829E06168002900F096820820ADF82C00E2
:20109C000888ADF82E00081D0BAC90E86800221D68C2087CD1E905231C31CDE910238DF88B
:2010BC003C0004F11C00102240F0C0FF20463CF0DBFB78E2A068002800F0738200206070DF
:2010DC0041F0C0FBA16808706DE26068002800F0688200216170017C19B1C189DFF8642888
:2010FC001181017B19B18168DFF858285160817C19B1417CDFF84C285173017919B10168CB
:20111C00DFF840281160017D19B1C17CDFF83428D173817D19B1417DDFF828281174017E56
:20113C00002900F04082C07DDFF8181848743AE2A068002800F0358200216170411C36F050
:20115C00C7FA30E20020607040F0EDFD2BE26068007818B339F06CFA25E26068002800F008
:20117C002282817A008836F0CBFF1CE26068002800F017820021617034F070FCA1680880B2
:20119C0011E26068002800F00C82007840F08AFB08E2022506E00226667004E23EF0E2F9C1
:2011BC0001E200256570FEE1002103794279002B18BF4031008819F0D9FEF3E11C2042F0E2
:2011DC0023F8002800F0EF811C21054641F074FE28462E713AF086FB98B16768FFF7B0B8F7
:2011FC001C2042F011F8002800F0DD811C21054641F062FE28462E713AF074FB00287FF48C
:20121C00C0A9284641F0FEFF87E1017A89B1C168008A420701D064290BD321F0D3FC002058
:20123C00012115F0ADFADFF83C273520282141F0B1FB6068817C41B1808ADFF82C27022101
:20125C001080442041F0A6FB6068817D41B1008BDFF8182702211080462041F09BFB6068AB
:20127C00817E41B1808BDFF8082702211080832041F090FB6068817F41B1C07FDFF8F42654
:20129C0001211070292041F085FB606890F8201049B190F82100DFF8E026012110702B20A9
:2012BC0041F078FB606890F8221049B190F82300DFF8C82601211070432041F06BFB60681E
:2012DC0090F8241049B190F82500DFF8B426012110702E2041F05EFB606890F8261049B1E4
:2012FC0090F82700DFF89C26012110702F2041F051FB606890F8281049B190F82900DFF812
:20131C00882601211070302041F044FB606890F82A1049B190F82B00DFF87026012110705B
:20133C002C2041F037FB606890F82C1089B190F82D20102A28BF1022016B8DF82C200BADFF
:20135C00681C40F073FE812011212A4641F022FB606890F8341049B190F83510102928BF40
:20137C001021826B622041F015FB606890F83C1041B1006CDFF8182604211060842041F0F7
:20139C0009FB606890F8441049B190F84500DFF80426012110704B2041F0FCFA606890F83D
:2013BC00461069B1DFF8F05500F147010822284640F03CFE472008212A4641F0EBFA60686C
:2013DC0090F84F1031B100F150020120082141F0E1FA606890F8581041B190F859008DF87F
:2013FC002C000BA9522036F051F9606890F85E1049B190F85F00DFF8A425012110703320DB
:20141C0041F0C8FA606890F85C1059B190F85D00DFF88C2501211070322041F0BBFA34F08C
:20143C0039FA606890F86010002900F0BC8090F86100DFF828154870DFF81C1581F86800AA
:20145C00B1E03FF08DFEDFF814150978884264D241F0E7FB20B18146007B002800F0D9810C
:20147C001C2041F0D1FE002800F09D801C21814641F022FD89F804604FF0010865682F78EA
:20149C00C9E1013040F035F88CE03BF0E1F90BAA2846112141F07EFA84E001250DF12C08CD
:2014BC000120C00715D0E80743462F464FF03A0018BF3B2000211122002540F0CFFA66686B
:2014DC009DF82C1030798142384604BF65700020E7E76078002866D1F288317908F101005A
:2014FC0006E500F10C010BA8102240F09FFD6068D0E907120430CDE90F1207A93DF020FD97
:20151C000028607000F08D806168488804310BAA33F0E9FE46E0012044E0D12042E0B120DE
:20153C0040E0013007A93DF00BFD6070D8BB07980021182240880BAB40F090FA607090BBA9
:20155C00A068DDE90F12C0E9071209300BA9FEF743BE00F1100107A841F023FD6068818907
:20157C00027E837A07AE0025CDE90225CDE90016821C0BA9222026E0103107A841F011FD86
:20159C006168DFF8D403C08A854210D1887A0A7E0C310123009107A915F036F808B100208E
:2015BC0000E002206070012028B0BDE8F08788890A7E8B7A07AE0025CDE90006CDE9022517
:2015DC008A1C0BA921202EF01BF8EBE70BAD1421284641F071FC0420314614222B4612E024
:2015FC0037463546012DDEDB60680822011D484640F01CFD60681422D0E90701CDE90B0188
:20161C00B9B20BAB04203CF003F9CBE7AB42CAD1A94208BF021D286810602846E5E08E6411
:20163C0010E00798182140880BAA33E7C820B9E7A068DDE90B12C0E90712B4E70020886453
:20165C0081F847006068007C70B1102041F0DCFD0346A06803653BB10121102280F84C1042
:20167C006220002140F0FAF96068417C31B1A168012281F85420C64A12688A65817C39B1A8
:20169C00A168012281F85C20C24A127881F85D20C17C51B1A0680121082280F85E10AE4911
:2016BC005F30393140F0C2FC6068017D59B1A568012085F8670040F041F8014605F16800B7
:2016DC0041F06FFC6068417D79B10BA952203CF041FEA068012180F870109DF82C100029F5
:2016FC0018BF012180F871106068817D19B1A1680122A1F87220C17D51B1A168012281F810
:20171C007420A74A1278002A18BF012281F87520017E39B1A168012281F876209F4A127855
:20173C0081F87720417E51B1A168012281F878208A4A5278002A18BF012281F87920807EAD
:20175C0000283FF430AFA168012081F87A00824991F82610082918BF042903D1A16881F801
:20177C007B0020E7A1B9212041F0BAFB74280FD10BAB21200021742240F070F99DF8521090
:20179C00043901F0FB010843B0FA80F04009E5E70020E3E7811C0BA841F003FC6068817B5B
:2017BC0031B3480041F030FD88B3616806460022887B904206D00B6933F8123026F8123025
:2017DC000132F6E78B8CCA8AD1F828C091F82210FFB2CDE90406CDE90271CDE900C80BA83B
:2017FC00294635F066FC6070304641F00BFDDAE6838CC28A816A90F82200FEB2CDE900182A
:20181C00CDE902600BA8294610F0FEFDCAE61020C8E64FF000084E4606F80C7F287A307340
:20183C004F487060142041F0EFFC0028B06045D0142141F041FB6268D9F814005268817983
:20185C00927901F0F00102F00F02114481716168D9F8140049680A780270D1F80220C0F83F
:20187C000220CA79C271097B0173500041F0CCFCD9F81410886060B1CA7900239A4208D06B
:20189C0065686D68AD6835F8135020F813500133F4E7087B400041F0B7FCD9F81410086156
:2018BC0060B1097B0022914208D063685B681B6933F8123020F812300132F4E730463DF020
:2018DC0051FBB82802D00746022806D1307839F0A1FF30463DF046FB074637B1B8F1000F5E
:2018FC000FD0484641F08EFC23E0B8F1000F3FF45AAE484639F0F6FF00287FF454AE4846D7
:20191C0073E7D9F8140078B1816821B1084641F079FCD9F81400016921B1084641F072FC86
:20193C00D9F8140041F06EFC0020C6E90000C6E90200B82F3FF448A9022F3FF445A932E616
:20195C00743A00206C2F0020203800201E3800201C380020AC380020F87A0020A4380020EE
:20197C0095690020EC8800204E3A00204A3A0020523A0020B63A0020B33A0020A93A002081
:20199C00B43A0020BF3A0020AA3A0020C23A0020243A0020A63A0020EC380020AD3A00201B
:2019BC00AE3A00201E8504006C91002098B0DFF844BB0BF10801584631F0DAFA0BF1180075
:2019DC0040F048FDCBF80C00DFF82C0BDFF82C1BDFF82C4B002215234FF0000900901020CB
:2019FC00A047DFF8201B102000220223A0471FF04BF9DFF8141B10204FF0FF32A047DFF8BD
:201A1C000C1B10204FF0FF32A0473CF027FB4FF0FF3039F02BFD4FF0FF3033F07FF84FF0A8
:201A3C00FF3032F077FA4FF4FA7027F011F82AF03DFB2BF01BFBDFF8D8AA0AF104003FF0F1
:201A5C005FFE0AF108003FF0B5FE0AF10C003FF089FEDFF8C01A0AF118021020A0479BF8FB
:201A7C000010DFF8B46A5020B047DFF8B01A02461020A0479BF800105020B047DFF8A01A43
:201A9C0002461020A047DFF89C1A1020FB2240F64803A047DFF8901A1020A0476FF0020090
:201ABC009BF800105D46CBE91399CBF85490871C502025F8407FB0470346DFF8700ADFF866
:201ADC00701A0422CDE900901020A0472846182141F0F2F92F8006AE304641F02FF8DFF812
:201AFC00540A31463CC83CC135460288807888700A8006F113002D2141F0DEF909208DF867
:201B1C005800304628F034FEDFF82C6A0AF12001306013F037FD3068DFF8201ADFF8203A67
:201B3C00DFF8204A0022A0473068DFF81C1ADFF81C3A0022A0473068DFF8141ADFF8143AA2
:201B5C000022A0473068DFF8101ADFF8103A0022A0473068DFF8081ADFF8083A0022A047EA
:201B7C003068DFF8041ADFF8043A0022A0473068DFF8FC19DFF8FC390022A0473068DFF896
:201B9C00F819DFF8F8390022A0473068DFF8F019DFF8F0390022A047DFF8EC0901213DF06B
:201BBC000DF8A81C0390DBF8080000214FF040424FF0FF331CF082FF0028F4D08046CDF87B
:201BDC00109005A80DF1170104AA39F08CFA002840F0A480BDF81400102840F099809BF8D0
:201BFC0000009DF81710814240F09280049E4FF6FD70851C3188ACB2A14200F08A80080A0D
:201C1C00C9B2912900F08082B02900F07C80D02940F07F80B178072900F2B582DFE811F04A
:201C3C00080078007800780078004603EE022D0300286DD116F8060FADF81B908DF81800C1
:201C5C00B6F801007179ADF81900B6F803008DF81F100821ADF81D00002006AA1EF064FE81
:201C7C00DFF8D408DFF8FC18DFF878290068096819F0E8F80BF10100DFF86C19DFF86C29AB
:201C9C00DFF86C39009010202AF084FB000640F02E84DFF86009DFF8604907219BF80120CF
:201CBC00002340F02DFD000640F02184DFF84C091B219BF80120012340F022FD000640F0EB
:201CDC0016849BF80120DFF83819102092232AF061FB9BF80120DFF8F81840F0EDFC00065D
:201CFC0040F00584DFF87C080468DFF84C080768304636F045FBDFF8E028DFF8E038009074
:201D1C003846214686E3317906F1080041F0D0FE049E06AD16B1304641F01CF95FEA480048
:201D3C007FF541AFDBF80C0040F070FE00287FF43AAFDBF80C003FF053F90028F2D0064692
:201D5C0000780138102800F2C581DFE810F01100B000C3017200EB00FA009000D000C3017F
:201D7C001701140123012A00A00046002700DA0070680078042800F2AD81DFE810F005007D
:201D9C007B017101AB019501002041F016F9DBF81030002B00F09E8100208CE109F086F846
:201DBC0098E1DFF8201841F0FFF8716800060988012940F00A8130B99BF80120DFF8201856
:201DDC0010202AF0E7FA0120DFF83C184FF6FD7213238AF800001020CAE07068DBF804205B
:201DFC000088CDF818908DF85F90CDF81C90ADF818001AB129469047BDF818004FF6FD719F
:201E1C00013189B2884200F0658140BABDF81C100DF15902ADF85900BDF81A00ADF85D1086
:201E3C00072100BA000CADF85B00002033F074FC50E174682068102800F0E780022800F0A7
:201E5C00D980012840F0F080DFF8781741F0ACF818B90120022115F033F8DFF8000762681C
:201E7C000168DFF8D4061378DFF8D027CBE00020002430F085FD07460AEB0401385D097CE1
:201E9C00884240F08A800134062CF5D122E170680078002840F01E81002029463EF0DEFA16
:201EBC00BDF8180000BA000C3CF0B9FD12E170680078002800F0CB80032800F0BC80062866
:201EDC0040F008810620294635F0AEFADBF838109DF8180009B1AA2807D0DBF83C10002958
:201EFC0000F0F880DD2840F0F5808847F2E07068B0F8010028F00AFE0120102114F0E0FF3D
:201F1C00ECE070684288BBF84000904267D19BF85700002800F0DE80DFF8E81610202AF0BB
:201F3C0039FAD7E071680878032800F2D3800B79DFE800F002C5A8B1DFF81806DFF8F02695
:201F5C0051E07468607A0028D7480BD0DFF80406DFF8BC26D44B0168DFF8DC05006818F012
:201F7C0071FFD148E288DFF8AC160090102000232AF010FAAEE02BF079F8ABE09AF800007B
:201F9C00012807D17068007800F0FE00062808BF8AF800902AF08AF89CE0DFF8D0050568AE
:201FBC00DFF894050468384636F0EAF9DFF85C2603462946204606AD18F044FF3868CAF8CB
:201FDC001000B888AAF8140084E028B99BF80120DFF8FC1540F070FB8AF800907AE0DFF820
:201FFC009405DFF8C8250168DFF84C05006818F029FF6FE0DFF8640562680168DFF8380569
:20201C001378DFF8342600680BE0DFF8500562680168DFF824051378528800920068DFF800
:20203C00142618F00FFF2068B0F1004F52D0606841F074F84EE00320294635F0F5F9DBF88F
:20205C003030002B46D003202946042235E00020294635F0E9F9DBF83030DBB3002006E099
:20207C00022040F0AAFFDBF810309BB302202946022222E0012040F0A0FFDBF810304BB330
:20209C00012018E0DFF8CC0463B30168DFF8A804DFF88C251BE0DFF8BC044BB30168DFF80A
:2020BC009804DFF8742512E0042040F086FFDBF810307BB103202946012298470AE0DFF899
:2020DC009404DBB10168DFF87004DFF85C25006818F0B8FE706808B141F020F8304641F00D
:2020FC001DF81FE60168DFF85004DFF838257DE70168DFF84404DFF8242577E70168DFF838
:20211C003804DFF8282571E73E2865D00F2849D010285CD00E287FF4FBADB08841F205419A
:20213C0088427FF4F5ADB168087800287FF4F0ADB1F80100BBF84020824240F0448191F9D3
:20215C000360F1B27F2900F05C819BF85120531C5A448BF8513082F84C1005229BF85110E2
:20217C00B1FBF2F202EB8202891A00228BF851100021052900F03C810BEB0103013193F9E5
:20219C004C301A44F5E711297FF4C2ADB088ADF81800B07B8DF822007089002800F0FC80FD
:2021BC00002003E1B08842F2320188427FF4B0ADB378DFF8C0031A2B40F0E5800168DFF8E7
:2021DC007803DFF8E423006818F03CFEE1E00820002126F07BF89BE5B0780C287FF498ADB9
:2021FC00DFF89003F2780168D348002A006800F0E280DFF8982318F025FEF4E0DFF8C41348
:20221C0040F0D2FECE49CC4C0746DFF8BC232068096818F017FECD49FFB22068DFF8AC2365
:20223C003B46096818F00EFEB688BBF84000B04240F086800297DBF8487087B1384641F018
:20225C000DF810B1384641F00FF8384641F074F8384640F063FFDBF8440040F05FFF0BF11A
:20227C00200427463F68002F58D03889B042F9D1204639463BF042FFF4E7B288CD4910208A
:20229C0006AB2AF087F8B1480468AB480768F078002860D00398B67836F072F8C64A009058
:2022BC003846214633465DE040E20100C54940F07BFEC5B2A048A549C44A2B4600680968E8
:2022DC0018F0C0FD7078002840F0B980BBF84000A04240F0A68074890320ABF8404040F006
:2022FC0023FF0028CBF8440000F09B800821A0F801400170242040F017FFDBF8441000281A
:20231C00CBF8480000F08A8001220023CDE90021B04941F2707231F0A5FE82E0304638F0AD
:20233C00DFF84FF6FD70029F864203D0BBF84000B04205D1CBE91399CBF85490ABF84050C7
:20235C009AF8000000287FF4E3AC002F7FF4E0AC9BF8012080E0039836F012F8974A03466E
:20237C003846214618F06EFD0BF120003DF0B6F800283FF4CDAC0646008928F0C7FB3046F9
:20239C0040F0CCFEC4E401686B48864A006818F059FD42F2320027E0ADF81E90D6F8060039
:2023BC00CDF81A00B089ADF820000120844906AA8DF823004BE0F279754B012A10D0022A51
:2023DC0009D1744B0CE06B48784A01685A48006818F038FD9CE4032A6F4A704B08BF1346F6
:2023FC006F4A18F02FFD0C20314629F02BF98FE411B2052291FBF2F19BF853208BF852103D
:20241C007AB35E489BF95220334601684A480092674A006818F016FDFFF77ABC084640F0E3
:20243C007DFE4748046844480768301D35F0A8FF694A6A4B00903846214618F003FD0120F0
:20245C00082114F03DFD9BF801202DB16449102029F0A0FFFFF75CBC5D4940F02DF9FFF7D2
:20247C0057BCC9B24AB212F11E0F09DB9BF8541041F002010229C4D000230224022116E056
:20249C00D82907D39BF854100229BAD30023012401210CE0CE2907D39BF854100029B0D0CF
:2024BC0001230421062402E00224042102239BF856509BF85520022D4FF0000538BF01256A
:2024DC00171BB7FA87F77F092F4208BFA24298D00A4636F0C9FE01208BF853009BF8550057
:2024FC00A04218BF8BF856908BF8554089E73FF0D3FA00BF1C2C0020B735002029110300AA
:20251C00B1C302001D8A03007DFF0300BDAD0300C02D002001F4030055D20300D96C02100D
:20253C002D6D02100D520210397F011012390020B5920100647C04001C9100201583040099
:20255C00149100204DE30100CC82040018910020948004000091002075810400F8900020E3
:20257C003A84040004910020D48304000C9100200081040008910020288304001091002002
:20259C00E2820400FC90002015EA0300807B0400FB840400F88404005A840400AF780400FA
:2025BC00097D0400947504007C710400AB7104000B760400F9DC0110957304003F78040025
:2025DC00D9570110E11B0400C478040067810400ED7401104992030054820400C8840400F8
:2025FC00650202109082040099010110C3DB0300A83400200439002069F00100E0340020FD
:20261C001DEF01100D2B0210A1F90110848204009E810400B5BF0300EE780400F77C040007
:20263C00837804009C7A04001B7D040054800400648004003073040090790400B879040020
:20265C0038B586B004468DF805104FF6FF720120ADF80220090ADFF8BC5AADF800000223EF
:20267C008DF806108DF8043069462A78204641F01BFA162803D12978204641F011FA07B0E1
:20269C0030BD3EB504000D461ED0DFF88C0A0068224641F001FAFF2815D0002000900023B1
:2026BC0001AA2946204621F003FE60B99DF8040000F06CF9C00606D59DF8040000F066F9DC
:2026DC0010F0040000D001203EBDFEB5154600F0B2FB15D100208DF80400DFF8387A9DF896
:2026FC000400F97988421AD22A46214600F03EF800B100269DF80400401C8DF80400EEE76B
:20271C0041F0C6F950B100F09CFB40B99DF804002A46214600F02AF8002600E014263046F4
:20273C00FEBD7CB50D46044606214C43164620346A46082120463CF079F8A8B900F074F8F5
:20275C0090B99DF80700002E14BF054320EA0505E9B2814206D08DF807506A4608212046CC
:20277C003CF078F8012076BD002076BD2DE9FC418046444606230D4616465C436A46082107
:20279C0004F120003CF052F800284AD100F04CF8002846D100F024FA040002D100F01DFAF0
:2027BC003FE0397A08F1E0082246890040463CF03DF890BB204600F04FF828000ED13A7ACF
:2027DC009206120E002120463DF02DFD28BB3A7A9200002120463FF013FA15E0214600F00F
:2027FC0028F850B9300004D02146002000F021F810B900F013FC14E005808178B1420CD0F7
:20281C0086700EB900210180204600F025F8397A2246890040463CF01DF800F0FFFB012054
:20283C0000E00020BDE8F6810622FF2168463DF0FABCB0B5DFF8DC381F7A002200E0521C2E
:20285C00D4B2BC4206D231F824508542F7D101EB8400B0BD0020B0BD10B50021DFF8B428D1
:20287C000AE030F82130DB4320F8213000EB8103491C9C78E4439C70137A9942F1DB10BD36
:20289C002DE9FE4FDFF88C580646287A0F469246984680003FF032FD5FEA000903D100F011
:2028BC009CF90A2070E00C9C02974FF0060B37461BFB07FB029A08210BF120003BF0CAFFF2
:2028DC008DF80400304600F099F82A7A9200FF2148463FF095F99DF8040000904A46297A5F
:2028FC00890006F1E0003BF0B5FF009E02990643286A082200EBC7003FF08CF9F4B1102202
:20291C00002120463DF08FFCC0B9029988790023224600F0010041F0B7F800281CBF9DF952
:20293C003C00002803D0DFF8F41701200870224610210BF123003BF08DFF06435FEA0A02BC
:20295C0005D01C210BF121003BF084FF06435FEA080205D01C210BF122003BF07BFF0643C4
:20297C000D9A4AB110210BF124003BF073FF06430EAA00F02DF90643A87D08B100F096FAED
:20299C0048463FF0C3FCF0B2BDE8FE8FE0B5062358436A46082120303BF048FF10B99DF879
:2029BC0007000EBDFF200EBDDFF86827107808211FF0BABE38B500F081F816E0286A06239A
:2029DC0000EBC40213FB04F3082103F120003BF02DFF40B100F081FA3FF012F92A6A02EB7A
:2029FC00C4000021C171641CE4B2E9798C42E5DBA87D10B1BDE8314058E231BDF8B5DFF8F6
:202A1C001417DFF81C47CB79194600E01146CAB242B14A1E2568C9B20D4415F8011C81423E
:202A3C00F4D11346DFF8EC16C979DBB218464D1E07E01718165C7F78175422680244401CD5
:202A5C005670A8422268F4DBAB4204DABDE8F84005203BF0FFBEF1BD70B500F02FF800E0D2
:202A7C00641CE879E3B283420BD22B6AE6B20622FF2103EBC6003DF0D6FB0028F0D0E0B281
:202A9C0070BDDFF8A026117839B1DFF8940601680C78204600F016F8204670BD38B500207B
:202ABC0000F00CF803E0E0B200F00CF8641CEA79E1B2914201D20100F5D032BD0024DFF8D1
:202ADC00545670472DE9F84F4FF0060B1BFB00FB8EB081460BF1200501AA082128463BF028
:202AFC00A5FE00286BD10622FF2101A83DF09BFB002864D100F074F85FEA000803D100F031
:202B1C006CF80A205DE01C22FF2103A83FF078F83A7A9200FF2140463FF072F80BF123067C
:202B3C000AAA102130463BF081FE60B91022FF210AA83DF078FB30B99DF80A0001A900F095
:202B5C00010040F09DFF082200F03EF801AA082128463BF07FFE054603AA1C210BF1210000
:202B7C003BF078FE8DF8000003AA1C210BF122003BF070FE044603AA102130463BF06AFE41
:202B9C00064603AA10210BF124003BF063FE824603AA00F01DF89DF800100D4325433543F4
:202BBC004AEA0505397A05434246890009F1E0003BF050FE054340463FF0A8FB00E00025B7
:202BDC0028460FB0BDE8F08FFF2101A83FF018B804210BF125003BF03DBE04203AF078BFCF
:202BFC00DFF83075387A80003FF088BB2DE9F84187B0FF208DF80000DFF81875F8793FF06B
:202C1C007DFB040003D1FFF7E8FF0A2030E01022FF2103A83EF0F4FFFA79FF2120463EF0EC
:202C3C00EFFF0622FFF7D0FF03AA102102203BF011FE054603AA102103203BF00BFE05439B
:202C5C006A46012104203BF005FE0646F979224605203BF0FFFD074601AA062106203BF052
:202C7C00F9FD804600F0DAF935433D4348EA050008B0BDE8F081DFF89C24408811783BF0A9
:202C9C005DBDF0B5A9B006460D46144640F000FF08B91420A6E0A422002168463EF0B0FFEB
:202CBC00ADF80060DFF86C64F078F27B27998DF804004908307C8DF8A000530802F00100BE
:202CDC0040EA410121F0020103F0010341EA4301100921F4807100F0010041EA002150093D
:202CFC0021F4007100F0010041EA4021900921F4806100F0010041EA8021920821F00401B9
:202D1C0002F00102707C41EA8201279102280CBF012000200DF12607787440F0ADFE4128BF
:202D3C0007DB707C00B108209DF8991008438DF89900F07CB8B10121B974202206F1880143
:202D5C000DF139003EF066FF202206F1A8010DF159003EF05FFF202206F1C8010DF179004F
:202D7C003EF058FF00E0B874707B8DF8050090B1DFF8B473102207F110010DF106003EF085
:202D9C0049FF9DF89900082805D1102239460DF116003EF03FFF307B8DF8260030B1102201
:202DBC00DFF888130DF127003EF034FF307948B1022D18BF032D03D1279840F002002790AB
:202DDC00012100E000219DF899000143B0788DF8991000B1042001438DF899106846214690
:202DFC0040F046FE29B0F0BD2DE9FC41904600F022F80ED10027DFF81C53E979F8B2884268
:202E1C0016D242462146FFF78CFC00B100267F1CF3E740F03DFE50B100F013F840B99DF800
:202E3C00040042462146FFF77CFC002600E014263046BDE8F68115264FF6FF7290420C462E
:202E5C007047002100910023417901AA01F00101801D21F02DBA70B504460D46062045436D
:202E7C00082B88B0164603D1300758BF223500D521351C220021FFF7A8FE01AA1C2128467A
:202E9C003BF0D4FC80B99DF81E00C01F0A280BD29DF830000090F20801AB02F0010206F05B
:202EBC00010120463FF031FB08B070BD38B540F0DBFDFFF703FE0CE000F00FF83DF0B3F9A6
:202EDC0028B9286A00EBC401887940F0C9FD641CE4B2E8798442EFDB31BD286A0622FF21ED
:202EFC0000EBC4007047F0B5914E0446706885B04FF6FF7538B9009602238E4A29460120A8
:202F1C0040F0AAFD7060716819B30222FF2002920023039001930DF112073288009704AB11
:202F3C0020460CF041FC60B99DF810009DF8111000EB0122100004D0706841892046FFF772
:202F5C00C4FB328870680023294640F081FD706008B9012000E0002005B0F0BD3EB50C466B
:202F7C00002501460095002301AA204621F0A0F938B99DF80400FFF709FDC00601D4012014
:202F9C003EBD00203EBD2DE9F0416B4F3C6806468846154603E02089B04224D02468002CBB
:202FBC00F9D10C203FF0AAF9040019D0268184F80A8000202060E07245B1082128463DF0E7
:202FDC00E9FD606018B900F029F80AE06060396811B93C6004E0014608680028FBD10C60A1
:202FFC000CB9152018E040F02FFD08B1002013E00120E0722A4641463046FFF742FE04463B
:20301C004448C06900281CBF4368002B03D000220021304698472046BDE8F08120463FF08A
:20303C0075B938B505464448046803E02089A84204D02468002CF9D1012032BDE07A0128B7
:20305C0007D100F05CF820B13248007804211FF06BFBE17A491CE1722846C9B200F002F8F5
:20307C00002032BD38B5022904462A4D02D003290DD01EE042F6C921FFF7E2FA02001CBFA2
:20309C00E869002818D04368B3B105210CE042F6A621FFF7D5FA01001CBFE96900290BD09C
:2030BC004B684BB102460421204601B0BDE830401847BDE8324000E031BD10B51E4A1468BF
:2030DC00002101E0214624686CB123898342F9D1206800290CBF10600860606808B13FF083
:2030FC0015F9FFF79BFF002010BD024604201249096819B10B899342FAD1C87A70470E48A4
:20311C00006828B1006818B1C17A0029FAD1704700207047B41F0020680F002064910020C5
:20313C001090002063910020B08A0020E08A0020808F0020388504001490002038B584B0E6
:20315C00044640F0A5FC0622417901F001018DF80E10811D02A83EF05DFD0020009000231D
:20317C009DF80E1001AA02A821F0A2F89DF80400FFF7A8FC05460521204640F061FC28467B
:20319C0005B030BD2DE9F04794B00179044601F00700012840F0BF81DFF8AC08031D206858
:2031BC00027D1B68002B00F0B6811D799542F8D1D3F808A0BAF1000F00F0AD8183880125ED
:2031DC00062B00F2A9810F07DFE813F00700A601A601570015006700CF00002F00F1F78216
:2031FC00E07A002840F09881DAF80000002800F0EE828047EBE2002F00F1C48000200DF178
:20321C003C0800211222ADF83A0040463EF0CAFDE668E07A3746052837F8011BADF83C1011
:20323C0000F27981DFE810F006001E02D401F701BF013D0220683246007D0FA934F0ACFCCC
:20325C006FF07602B82808BF6FF07502002808BF02463FF005FE40F0BA824888002840F001
:20327C00B682A37A087DBDF83C40012506310293D3B20022CDE90045F1E1E17A002F00F146
:20329C00C580012900F04C81002940F04581E0681146008830F0A8F899E2002F00F1CF80F6
:2032BC000020E76800211E228DF83A0006AD28463EF078FDE07A3988BA7806288DF81A2065
:2032DC00ADF8181000F22781DFE810F00700370222022C02010240024A02B7F803000021AE
:2032FC000DF13A030422ADF81C0020687E79007D0091052136F055FD9DF83A00063750B158
:20331C000F2E05F10900394628BF0F2632468DF820603EF083FFE0683E44218A801B084431
:20333C008DF83000C0B288B1052805F1190724BF04208DF83000FF21042238463EF032FDF1
:20335C009DF83020384631463EF068FFBDF81810002900F0A3822068007D3BF00FF8002868
:20337C0000F00F83BDF8181099E2002F00F12F82E07A022800F2D080DAF81410002940F071
:20339C00C88024E20DF13C08E7680021122240463EF008FD06A8002114223EF003FDE07A97
:2033BC00022804D300F0CC80032840F0B480397801288DF81D10B7F80120ADF83C2008BF01
:2033DC0000290DD1FA7808F103000F2A28BF0F22391D8DF83E203EF021FF08F102000A90EF
:2033FC00DAF824100025002900F0968001208DF82450CDF820808DF81E00E07A8DF81C003A
:20341C0020680630069006A8884785E0002940F0838006300690E0680088ADF81C0006A8F3
:20343C0032F068FBDAF80C10002900F0D0812068E26806300F901088ADF8400068E00DF129
:20345C001808D4F80C9000211E2240463EF0AAFC0FA8002114223EF0A5FCE17A99F8000044
:20347C0006298DF841001DD199F8011000288DF84810B9F80210ADF818107CD00025DAF8D3
:20349C00301051B1E07ACDF84C8011958DF84000206806300F900FA88847002D00F0978160
:2034BC00284692E1B9F801008A1E032AADF8180009F103001AD3C9B101292CD199F80300AC
:2034DC0099F8065009F1070739468DF81A00B9F804000F2DADF81C0028BF0F2508F10900F4
:2034FC002A468DF820503EF099FE7819DAF83010002900F06C81E27A032A1CBF00788DF87C
:20351C001A00CDF84C808DF84020206806300F900FA888475BE10125284614B0BDE8F0876C
:20353C00DAF808100025ADF83C50002900F0DC800630069006A8884720688188027DD4E0AD
:20355C0038788DF824007D78002D00F02B8168003FF0FAFE002800F02581804600208DF880
:20357C001E50854200F0208107EB4001498828F810100130F5E799F80470002F3FF47EAF84
:20359C0038463FF0E1FE00283FF478AF054609F1050000218DF842708F423FF470AF425C9E
:2035BC006A540131F8E72068007D06A93BF0ECFC002800F00C81054606AE2068002D007D83
:2035DC0000F0078136F8021B2CF082FE013DF4E796F8009020203FF0B7FE002800F000817C
:2035FC008046B9F1000F00F09881002600254D4580F0F28020683988007DADF83C103AF087
:20361C00BDFE28B1BDF83C10F0B2013628F8101002370135EBE7206889B2007D2CF058FEED
:20363C002068BDF83C10007D34F06AFF00250022002808BF6FF074023FF012FC7FF46CAF05
:20365C00488800287FF468AFA37ABDF83C40087D012506310293D3B2CDE90045032235F03D
:20367C006FF9EFE12068427D002A40F0B08042880025002A7FF450AF007D89B23AF07EFE3C
:20369C002168A37A012400280A7DCDE900430CBF8B2580460631434610462A4629F060F962
:2036BC00D0E1206800250DF13A0303210022007D009536F076FBBDF83A0000283FF42CAF41
:2036DC0020683246007D0FA934F066FA7FE0080400F09B803FF087FA002800F03C819DF885
:2036FC001A20BDF8181091E00321009510460FAB002236F056FBBDF83C20002A67D02168C9
:20371C00A37A087D00930631012339F0F9FA99E1206889B2007D28F073FF002800F0958070
:20373C0000229EE0080400F0B2803FF05CFA002800F01381BDF81810AAE0206889B23FF015
:20375C003FFC002800F0CD80002368E1206889B23FF036FCD8B3DAF82C10C1B31090D4E6B6
:20377C00080404D03FF03FFA002800F00C8105203FF0EAFD2668002800F0CA800546307D1D
:20379C00BDF818102A462FF09FF826688146707D002800F02981B9F1000F00F010814FF08D
:2037BC000008F6E04FF00008DAF8241049B1E07ACDF820808DF81C0020680630069006A866
:2037DC008847B8F1000F02D040463FF091FB0025A2E637F00DF8FAE7300640F0A480B8E057
:2037FC0089202168A37A01258DF81900E07A00248A888DF81800087DCDE90055CDE90243E2
:20381C00063106AB37F011FD1CE1002120683FF0D7FB074628B936F0ABF8042800F2ED8046
:20383C0006AFDAF82810002900F0CD802068109706300F900FA88847AF4200F0C68000286E
:20385C0000F0C8803AF066FFC4E02068BDF81810007D3AF093FD6FF07402002808BF6FF022
:20387C007A023FF0FDFA40F0ED804888002840F0E980A37ABDF81840087D9DF81A50012687
:20389C0006310393D3B28DE870000222C2E000212068007D2CF01CFD00235FE000212068A9
:2038BC009DF81A203FF08CFB38B30646BDF81C00B0809DF83A0030B106F1080005F1080181
:2038DC0010223EF0ABFC9DF8302006F1190005F119013EF0A3FC9DF8300030763AF01AFF45
:2038FC0014E0BDF8181031B12068007D3AF046FD002800F092808B2390E036F039F80528BB
:20391C007DD22068007D06A925F0ECF8002377E04FF000094FF089083AE020684146007D57
:20393C003BF032FB064625682F7D3DF0D1FBC0F11000A17A0122F3B2C0B2CDE9023801236B
:20395C00CDE90020CDE90421A91D3846022226F0FFF9404634E085233DE085233FF080FA74
:20397C0070D1488800286DD1A27A087D0125BDF8184000260631CDE902520322CDE9004658
:20399C0048E085233CE026684FF000094FF085080025377D35F0ECFFA17ABDF81820012368
:2039BC00C0F10500CDE90095CDE902230491C3B2B11D3846424627F003FC002D42D028466E
:2039DC003FF096FA3EE0AF4204D12068007D06A925F088F800233FF043FA33D1488888BB39
:2039FC003DF09EFA042215E070884FF000080028CFD0B9F1000FE2D0CBE78923EBE789237E
:203A1C003FF02EFA1ED14888E0B9E07AD0B93DF087FA002232F047FC14E0852306A82168F0
:203A3C004A7D7AB94A886AB9E27A012A0AD10A7DA47A01250631CDE900051046012202944D
:203A5C001FF0C6FEFF2567E58C3800202DE9F04F99B080466FF007000DF11C0B063098F86E
:203A7C0008105A46ADF85200D8F804001AF0F4F9002800F0B5809DF81E609DF81F409DF8C7
:203A9C002070BDF826503EF0EDFD844240F0A88025F003004FF6F87480B2A04200F0A0802C
:203ABC00012F00F29D80022E80F09A80B8F82800ADF84800B8F83200ADF82A009DF82200C4
:203ADC00D0B1D8F804109DF81D209DF8383001203CF05EFD08B1CF2083E0DFF85807C07875
:203AFC00012809D1B8F828003FF06EF920B1417901F0E701083141719DF8210068B1BDF866
:203B1C002610FF203AF03AFC9DF82110D8B141F001012C268DF8211016E09DF8390000285E
:203B3C0064D09DF83D10FF2902D0002940F0ED80DFF80407BDF82620C18A8A4240F0EE8001
:203B5C000120222607E0082601F00300012808BF46F011060120B1073746DFF8DC9658BFE4
:203B7C0067F07F07002808BF37469DF8220030B999F80B0018B107F02200222813D117F08D
:203B9C00400A58D0119899F80E200178920718D40C291BD8012241F290438A401A4245D1A4
:203BBC00032940D012E0F8B200F0420042287FF492AF1198007800F0FE0006287FF48BAFD7
:203BDC00DDE7A1F10C0212F10C0F2AD8B9F81600BDF82620824203D1BDF8280038F028FCC2
:203BFC00D32037F058FB19B0BDE8F08FBDF8260036F026FB0238DFF84016B0FA80F0CA8A58
:203C1C004109BDF82600904208BF0231002900F08C809DF81E20002A00F03A8101F1400791
:203C3C0038E1032902D140780D2804D007A835F0D1F90128D7D0B9F82400B8F84410814285
:203C5C000AD198F84620B8F84210B8F8280000230093002318F036FD9DF82200E0B1B8F891
:203C7C004210B8F8280038F043FFB8B30646D8F804009DF81D10F2780844417B8A421EBF2C
:203C9C0000227260F1700130042139F077FF71688842A8D30130706099F80E008007A2D502
:203CBC009DF84D0058B1BDF828003DF09DF800286FD0D8F80400417801F0DF0141709DF853
:203CDC002E00A0B3D8F804008179013981718DF82E1007F07F0009062CD12AE09DF84D001C
:203CFC00002841D004203BF00BF800283FF47BAF01464FF4B2700880B8F828004880DFF8ED
:203D1C003C0500782FF03CFA6DE7109A9DF83C0033F012FC30B1012000261CE790F82600A0
:203D3C000428F8D10026002015E70027B2E007F07F000746390702D44FF0000A49E0F9B281
:203D5C004A0737D4C9069DF821103DD5C1F3820212B1072A18BF013A002A08BF074601F0D7
:203D7C00E30040EA82012DE099F86C0001287FF493AF11980078062803D1BAF1000F7FF45F
:203D9C008BAFE01DBDF82A1080B281423FF42BAF44E1D32037F07FFADFF8A4040078002808
:203DBC0000F0AD80DFF89C1451F82000C0EB00108100A6E09DF8210000F0E00100F0E300BE
:203DDC0040EAD1018DF82110D8F804004FF4805A017299F82600092801D0042829D1B9F821
:203DFC001610BDF8260088420AD036F029FA022806D09DF8210000F0030001287FF4F3AED3
:203E1C009DF81E0000285BD011989DF838100078042808BF02296DD0072808BF042900F014
:203E3C00838003287FF4DFAE07A800211CF046F8D9E6FEB217F0610F49D0F00708D0B8F8A0
:203E5C00281007A822F038FB002871D007F09F070025FEB2B80605D53DF009FB07A815A909
:203E7C000BF086FA700640F13981B8F8281007A80DF152022B461AF06BF8002800F081806A
:203E9C00054611980078012808BF4AF0100A25E101F1200736F0D4F90138B0FA80F04009A8
:203EBC0047EA00069DF81E0000283FF453AE119800783CF0F9FF012818BF07F07E0649E6B1
:203EDC003DF0D5FA07A815A90BF052FA8BE69DF81E00012864D111980078032853D00528F8
:203EFC005ED1B8F8281007A80DF1520200231AF02FF878E607A900201BF068FB73E6D1482C
:203F1C000168D1480268BDF82800904701287FF46AAECE480168BDF828008847CC48016889
:203F3C00BDF8280088475EE607A826F06BF85AE63BF0A6FC9DF82E100546BDF8280021B96B
:203F5C00B8F8281088423FF484AFB9F81610814204D1B848807800283FF47BAFB8F8281059
:203F7C0007A82A4611F096FC002800F09E8030074AF0040ABDF8260048BFE01DADF85200E8
:203F9C0067E70025AAE0BDF826003CF02DFF38B1B8F8281007A80DF15202002319F0D8FF00
:203FBC009DF82E0088B337F057FE00287FF41BAE9DF83900B8B3109A9DF83C009DF83D1071
:203FDC0033F0BAFA002873D09DF83D00002878D010993EF044FE9DF82430ADF85200112017
:203FFC009DF823209DF821104AF0400A002B08BF0920002A18BF0830002918BF0130D8F82E
:20401C0004100A5C013A0A5465E09DF81E00012804D11198007803283FF4E5AD07A8414634
:20403C002FF06EFBDFE59DF82010BDF826000029ADF8520000F0CF804020BDF826100BF1D2
:20405C001D0200EAC7099DF820004B4627F0BAFA38B1D8F804004AF0200A017801F03F018F
:20407C0001709DF8390048B1BDF826100BF1200034F092FF4AF0400AADF852009DF81E0002
:20409C00012806D0BDF82810BDF82600002221F027FCBDF82810BDF826004A461DF08EFCF8
:2040BC00002818BF4AF0200A15E007F0DF07CFE6BDF82610BDF828000B2200232AF066FA68
:2040DC0091E5BDF82600ADF852003EF07DFE002808BF4AF0400A3BF0D3FB0546A01DBDF8AA
:2040FC00521080B20E1A5B4818BF2E460078012805D1E01DB8F8321080B281422ED178B276
:20411C00B0F1FF3F3FF76FAD002E3FF46CADB8F808003FF079F800283FF465ADB8F808203B
:20413C00D8F8041005463DF081FF9DF81E10002098F80830B8F8282016908DF85410BDF8A0
:20415C00521015ACCDE9006ACDE9020428461EF0BFFE68B328463FF055F844E5B8F82810F5
:20417C008142CCD0601CBDF8262080B28242C6D2BDF828008142C2D03EF026FE0028BED085
:20419C00017901390129BAD8408801218DF85410ADF8600015AD284630F0F8FB0028AED0D2
:2041BC00281D2EF059FD0028A9D03AF083F8A6E72048407800283FF416AD00208DF81860FC
:2041DC00ADF81900DDF826004FEA3040059005A83DF03AFC07E531073FF52EAF9DF81E10C4
:2041FC0001293FF429AF002127F0ACF920B1407901380228FFF420AFB8F84410BDF85200D7
:20421C0038F076FC30B180783BF0CAFD01380728FFF412AFBDF828003CF0E6FD18B1042028
:20423C008DF8200008E7BDF82610BDF82800022243E700BFEC370020F87A00206C91002007
:20425C00B73A002038700400003300200833002004330020C33A00202DE9F84F012036F0BF
:20427C009BFE012816D1DFF8B066307800213FF0E3FB040004BF002039F02AFC00202072CE
:20429C00201D22F0C9FE0AF039FD050003D181203FF0CEFB3CE301206871072022F0ABFF4E
:2042BC00DFF878A6DFF878269AF80100401C8AF80100A879A0724020317811701FF028FA18
:2042DC002860616D4A78206DD10620D5816C0A681179032908D0816C0868007903280CBF98
:2042FC000120002039F0F4FB206D816C0A6890F86C0002F1080701281CBF002039F0E8FB37
:20431C00216D486F296800F5B060C8604EE0416F0A681179032908D0416F086800790328DC
:20433C000CBF0120002039F0D3FB206D416F0A6890F8A00002F1080701281CBF002039F038
:20435C00C7FB216DB5F87401D1F8A8202968DFF8D435CA6097F82660DFF8CC25032E1FD89E
:20437C00DFE806F002061014C86800F5B06002E0C86800F53470C86005F59A70118801870B
:20439C00108811E0C86800F5355002E0C86800F6B870C86005F59A7019880187188803E0C6
:2043BC00CA6802F5B062CA60A5F8740106222868C16801F5B471C160B91C3878C0F3801085
:2043DC0085F82E0105F594703DF024FCA8793DF04DFF060004BF002039F07AFB94F8C1005C
:2043FC00DFF8489586F83A000422DFF8446507F10E0105F124003DF00DFC336803F10C009D
:20441C00AB79042207F10E0100EB43103DF002FC032207F1120105F128003DF0FBFB3068BD
:20443C00AB7900EB4313032207F1120103F110003DF0F0FB05F12C08787D88F802000222EA
:20445C0007F1160105F130003DF0E4FB022207F1180105F132003DF0DDFB022207F11A0166
:20447C0005F134003DF0D6FBB8F808006884022207F11C0105F136003DF0CCFB98F8020069
:20449C00B8F80A10400088F802000901B8F80400A8F80A104000A8F8040089B2B8F8060027
:2044BC004000A8F8060003046A8C521CDB0B5A438A4201D280B230B999F8000080211EF012
:2044DC0033F93B2127E105F12E0128463FF0ACFA0520A88128463FF0A3FA052207F11E0102
:2044FC0005F161003DF096FB97F82300400988F800003FF091FA688205F59A72618D401A1E
:20451C00D08005F1610197F8230000F01F0088F80F0028463FF07CFA616D4A78206DD10680
:20453C004CBF816C416F0868DFF808740021017141F62101AA793868520181520022AB79D9
:20455C0000EB43114A80A97900EB41104260616DDFF8E4034A78D1060DD5DFF8E0138A7863
:20457C0053060AD5DFF8D823118841F20A42914208BFDFF8D003C5F89C01D5F89C11284677
:20459C0088473B68A97903F10E02490150543A68A87902F10E0142018B5CEB4A11680B547D
:2045BC003868AA7900EB42110020C87398F80C1088F80D10606D4178CA0619D595F89601D2
:2045DC0008B939F085FA3868A97900EB411295F89601411E11743A68A87902EB401100222B
:2045FC004A743B68A97903F112004901425229E03868A97900EB4112206D90F84410117441
:20461C003A68A87902EB4011206D90F845204A743968A879CD4A01EB4011107820F0FEFE9B
:20463C00226D92F8443005F5CB71012003F0030398400870226D92F84400800814BF012058
:20465C0002200871A8793B683268400103F1140102440A503868A979DFF8F4B200EB4112DE
:20467C00BC489061DBF814000078C1074CBF1F200F20DBF8141009788A0748BF40F0200029
:20469C00DBF8141009784A0748BF40F04000DBF8141009780A0748BF40F080003168AA79C2
:2046BC0001EB421318723068A97900EB41120B2050723168AA7901EB42100421A64A81722C
:2046DC001378012B06D13068A97900EB41120120D07207E0DBF824003168AA79407801EB97
:2046FC004213D8723168A87901EB40121F2111763068AA7900EB421100204876A8791EF03A
:20471C0087FEAA79316852018850AA7931685201885820B9072128463AF038F8F8E08F4AA8
:20473C00A979106800EB01103FF06EF9A87931688A4B01EB4012196801EB00105060A97915
:20475C00306800EB41125168C8F83C10AA7952018158C8F84410042199F800001DF0E4FF99
:20477C00616D4A783868D10648BF022109D4A97900EB4112137C03F00303022B14BF042102
:20479C000621B8F8042095F806C04FF4C8738A18698AAA615143B1FBF3F35B1C6B6100EB3D
:2047BC004C10D5F800E0DEF80CC040F6C41101FB02C2D21AA2F5A86282603868AA7900EB4A
:2047DC0042139A682B689A6000F10C03AA7952010C309B5C03F0EF038354A8793A68400170
:2047FC0002F10C030C321B5C03F07F031354A8793A68400102F10C030C321B5C03F0F00369
:20481C0043F0020313543868AB7900EB4310427B02F0F00242F0010242733868AA7900EBA2
:20483C00421398682A6810613368AA7998F802C003F114006B695B00520111FB0C3303F527
:20485C00F663835095F8960104280DD13068AA7900F114034FEA421C143053F80C20AB79A9
:20487C005B0102F56162C2503068AA7900F114034FEA421C53F80C20C5F83421AA7900EB03
:20489C004210C37C03F0F00343F00403C374DBF830003268AB79006802EB431CB8F80620C9
:2048BC0042436423B2FBF3F35943A1F59661CCF81C103068A97900EB4110C27E02F0F0020A
:2048DC0042F00402C2763868A97900EB41122868426095F8FD10080703D50E2128463DF0CF
:2048FC001BFE1F49072008702046AA798AF8022035F04CF91B488178880704D5AA790021DD
:20491C0020463FF07DF828681749184A41618261BDE8F14F3EF0C6BCD50F0020780E00205B
:20493C00D70F0020900F00208E0F0020C70F00209C0E0020980E002081010210C00C0020D3
:20495C009A0F00204DE5011000900020CA0F0020F86F0400980C0020CC0F0020A40E00208A
:20497C00C80F0020200E00206DD30100020480802DE9F04F054687B0A978DFF8E86600274B
:20499C0010294FF0060A3CD8DFE811F0110067036703670367033C00CB0067036703C6023B
:2049BC001101FC00170367039802DD025F036878002826D13FF020F804463FF019F8054653
:2049DC0039F02EF88DF8000022461021022039F041FF2A461021032039F03CFF6A460121C9
:2049FC00042039F037FF9DF80000012818BF032807D101202DF0C4FF02460621062039F0C1
:204A1C0029FF2AE368780028FBD195F80CB06C8900900023E97801AA01F00101281D1FF02D
:204A3C0047FC00284FF0010871D19DF80400FDF7ADFF8146BBF1080F08BFB846307A8000B3
:204A5C003DF05CFC050003D1042039F041F804E3707802280CBF0120002000905B469DF88B
:204A7C0004104A462046FEF7F6F91422002102A83DF0C6F89DF804001AFB00F002AA1021C5
:204A9C00243039F0D3FEA8B91022FF2102A83BF0CAFB78B99DF804001AFB00FA06AA0421B1
:204ABC000AF1250039F0C2FE02AA09F0010120463EF09AFF317A9DF804002A468900E030B0
:204ADC0039F0B4FE98B92846FDF7C6FEBA4609E005EB8000018819B1827820463BF076FBC0
:204AFC000AF1010A317A5FFA8AF08842F0D3B07A30B95FEA897003D53178204639F01EFE08
:204B1C009DF80400FDF77AFF28463DF0FFFB7078022805D1B8F1000F02D020462DF090F960
:204B3C009BE2A888FEF7C9FA3EF05AFF0028F7D1F07D012808D1FDF7B1FFF279706AF775B9
:204B5C0000213DF05DF817E0307E012803D1FEF74DF8377610E000240AE0706AE5B2415D00
:204B7C00012904D1E0B2FDF7ADFF716A4F55641CE0B2F1798842F0D350203BF081FAFDF756
:204B9C0019FF6AE23EF060FF00280CD0F06900281CBF0468002C07D0286900906B7B2A7B8D
:204BBC006989E81CA04757E2688901214AE268780024002840F0DA80A879C10740F1D6805E
:204BDC000822002105A83DF01BF8A8883EF060FF040000F08E806F694FB30622002107F1A7
:204BFC0011003BF020FB68B31022002138463BF01AFBD0B9387C00F001084FF0000909F19E
:204C1C00010987F811900020009000230022414607F111001FF04CFB00285FFA89F002D1A6
:204C3C000028ECD101E000280CD1002068610622607900F001008DF81A00A11D05A83CF07C
:204C5C00E9FF1FE06F69EFB1387C00F001008DF81A00062207F1110105A83CF0DBFF6079D7
:204C7C00012805D10622A11D04F10C003CF0D2FF062207F11101A01D3CF0CCFF387C40F06B
:204C9C0002006071A879410720794CBF40F0020000F0FD002071A9790A0754BF00F0DF0053
:204CBC0040F020002071A8799DF81B10DFF8B883800800F0010008438DF81B004FF0FF0959
:204CDC00A979C90801F0010140EAC1008DF81B00FF2469691E2779B3102268463CF09AFF3C
:204CFC00102168463EF078FE4FF0000BDFF87C930CE0FEF704FA0028D5D0307804211DF05F
:204D1C0013FDD0E70BF101005FFA80FB99F80000834510DAD8F8001017FB0BF00A5CFF2A20
:204D3C00F0D0084400F10D01102268463BF024FF0128E7D15C46A1460020009000239DF84C
:204D5C001A1004AA05A81FF0B3FAB9F1FF0F5DD034285BD1707D30B3012857D1A888052112
:204D7C003EF06EFE0124A888FEF7A7F968780B2804BFA888FEF7E2F9F06900281CBF4368B6
:204D9C00002B0FD06A78A888012198476878002808D1A879C10705D52246F469A888636876
:204DBC000321984751E1D8F80000002117FB09F90091002310F80910401C04AA48441FF023
:204DDC0077FA18BB9DF81000FDF77CFEF0B9FDF7F1FDFDF741FE8DF81000E86800280CBFCA
:204DFC0000210169002201900392029105A9686900902B69AA689DF81000FDF741FD04465B
:204E1C00A888FEF770F8200046D14BE00020009000239DF81A1004AA05A81FF049FA20B177
:204E3C00FDF71AFE8DF8100019E06869B8B19DF810001AFB00FA6A4610210AF1230039F0A6
:204E5C00F5FC60B91022FF2168463BF0ECF930B99DF81A0005A900F001003EF011FE9DF813
:204E7C001000F179884227D2E86800280CBF00210169002201900392029105A96869009021
:204E9C002B69AA689DF81000FDF7FAFC0446A888FEF729F8200005D09DF81000FDF712FE93
:204EBC00FDF788FD200008D1707A0028A8887FF45BAFFEF7B6F859E7152454E76878062840
:204EDC001FD1A8883EF0E4FDD8B1317D491E032917D8DFE801F0020E08134179A8880022DF
:204EFC00FEF751F80DE00022002140F2094006F0F5FBA88805213EF0A3FD02E0A888FEF79C
:204F1C001DF9F06900281CBF4368002B03D06A78A888022198479FE000970023E97801AA01
:204F3C0001F00101281D1FF0C3F90028F3D19DF804001AFB00FA05F10C0204210AF1250075
:204F5C0039F088FC88E0F06900281CBF4368002B03D0A888002200219847707810B9A888E8
:204F7C0005216FE0A8883EF093FD040075D0A87AC10712D5009700236179002201F00101EF
:204F9C00A01D1FF095F900281EBF60790028012803D0E868C0F3402028B1707C022807D16F
:204FBC00A87A010704D4A88803213EF011FD54E06179A88805F108022CE02F7BAD882846AC
:204FDC003EF066FD040047D03EF03EFD002843D100900023617901AA01F00101A01D1FF06D
:204FFC0067F950BB9DF80400FDF7D0FCFF280ED0790700D4B8B107F00C07042F11D0082FBA
:20501C000BD00C2F0FD100F0090109290BD0617900222846FDF7B7FF1EE010F0090F02D17A
:20503C00F5E7C107F3D501220092A37C9DF8041002462846FDF70FFF0EE070780028E6D1FE
:20505C00052128463EF0C4FC06E0FEF758F818B1307804211DF068FB0127384607B0BDE87F
:20507C00F08F00BFB41F0020680F00205E9100202DE9F04F89B035F043FDDFF85415812267
:20509C00DFF85885DFF858A5DFF86445DFF858E50A70DFF840150860DFF83C05FF21017021
:2050BC000020DFF84815A8F800008AF80000DFF834050968007891F808B04FF6FE718EF8EA
:2050DC00000059448AB2A168D1F80031DB899A4200F268810422DFF82055A8F80020DFF8B4
:2050FC00142512689668330ECEF80C60C6F301592B706FF0FF0303EA1627B3B2D1F8B860F1
:20511C0047EA1327AEF8047036781EB9B9F1020F00F04881B9F1030F00F044811B0A03F06C
:20513C00070316B1002B00F03D81DFF8D0C4042B9CF800C008BFBCF1000F00F033813EB1A5
:20515C00DFF8BC643678862E02D1022B40F02A81BB0416D4BBB203F00703022B08BFBCF14B
:20517C00000F20D0DFF898140978862909D10020764635F019FDDFF88404B64690F800C0CD
:20519C00307800284ED0BCF1000F4BD1012800F0098103283FD0022844D1BEF80400400710
:2051BC0040F000813EE0D1F8D40090F88300022800F0818027460520147BF246A946A8F859
:2051DC0000003DF019FA0546DFF83404007886286ED1B868016C096811B9D0F84C0580470C
:2051FC0060B2002100263EF079F8B9680A6C12685077086C00688677086C0068C477284665
:20521C003DF0A2FEBAF8041099F8000001F010012FF0A2F84FE0BEF8040000F00700032888
:20523C0040F0C080BEF80400010700F1BB80810402D4810500F1B6809EF80E20C2F38107EB
:20525C00012F00F0AF809609012E00F0AB80B9F1010F11D840F0020101F0070103290BD123
:20527C0017B93F2A40F29E8037B9A168D1F8AC100978002900F096804FF6FB71B9F1020FEF
:20529C000BEB010C1AD1DFF88033D95D9B5D03EB01090023402AB7FA87F238BF0123520927
:2052BC001A40430616D4002A08BF09F1020915E028463DF049FE3BF00FFB75E0D14B402A68
:2052DC00D95D9B5D03EB010908D3420648BFA9F1020903E0002A18BF4FF00209C0F30020BC
:2052FC005FFA89F11FFA8CF30A1A8EF801009A4258DC60440391B346401AA168AEF806002C
:20531C007430D1F8501280B28847B7490028886048D07421CDE901973DF0CEFDB24F00207D
:20533C00B870B648007820B9387900F020008AF8000078789AF80010DFF8B8C24FF000096C
:20535C002E460029AA493DD000284FF000003AD1B88800F00700032807D0012832D18868CD
:20537C00D0F8D40090F8820060B3C8684069007818B13CF0D9F9FE280DD09D488068D0F8A8
:20539C004C02804738B99A488068D0F844028047002800F01981944F0120B870DFF854C281
:2053BC002E4610E03BF024FF3DF026F9914900240A6813681C7112680A603DF0C5FD09B0CF
:2053DC00BDE8F08F0020BC6804F1740184F830B06160A1657978BB88FA880029A381029B1C
:2053FC00228184F83A30337808BF994697F80EB084F84990019DA4F85C20FF22B8F800305E
:20541C00A273CBF301195E1A797BA8F8006001F0780160F3820101EB09002074280600F030
:20543C00D080DCF8000004AF039A10FA86F000F1080138463DF022FF56FA85F0CBF381058D
:20545C00A8F80000207C00F04008D5B3B9F1020F06D1B8F1000F03D0B4F8440004AF06E08E
:20547C00BDF810000237A4F84400A4F84200674EF189884203D04FF6FF71884260D1032DA8
:20549C0012D104F1320039463DF0E8FD564CF11CA06832303AF0EEF85549002850D094F8BA
:2054BC000EB0234608370EE037F8020BB1898842608606D04FF6FF714B4B88424C493FD1C6
:2054DC0001E04B49484BBBF1400F21D3B9F1020F06D16DB9B8F1000F0AD14348806803E018
:2054FC009868017C490603D439880237A0F84210BBF1C00F07D33C4C3946A06828303DF020
:20551C00ADFD234603E0384B388899680885384989689888D1F8AC201278B2B1B9F1020FD9
:20553C0013D200F00700012802D003280FD12E4B6DB9364A9B68D289B3F84230934206D028
:20555C003DF018FF29F0DCFB2EE700F00700032806D0012816D1D1F8D40090F8820088B1FE
:20557C002148D1F848128068884758B91E4A0020D17B9070907B00F07800C1F30111084462
:20559C00916808743DF05CF8D8B117488068B0F84210283023F056FEFF2812D13DF04AF8F7
:2055BC00114A0138B0FA80F0517B4009907001F0780141EA8000917BC1F3011108449168E0
:2055DC0008740DF00DFFEFE6074FB878E6E600BF7F910020C090002084910020449100207A
:2055FC00829100208191002098360020249100200C010020B88F0020919100209091002050
:20561C00879100208883040084830400888E0020ACB0DFF8E4A401210127CAF80C003DF0E6
:20563C0013FADFF8D844DFF8D81400264FF4FA724FF4FA73CDE9007604F12C002EF06EFA33
:20565C0025AD28463DF0A7FB04F1100B00212A468DF8946058463BF0CBF9C4F804B03DF0DB
:20567C00E1F904F108085946424635F09BFFDFF89414554620700E810E80082105F8301F0D
:20569C00DFF88414A960294624F020FF05F11001082030F001FD3CF0B9FDDFF87004DFF883
:2056BC0070240178082035F043FBDFF8681408202EF04EFF4FF40060AC498DF826708DF818
:2056DC0020708DF81870079005904FF48070ADF82B00A748CDF82210CDF82700207805A9CA
:2056FC003DF01CFB05AF442138463DF0E5FB4FF0013040F20111CDF82A0014902078ADF822
:20571C004210ADF82E1039463DF0D6FA207830F063FA15E90F003CF0D1FC55E908013DF02D
:20573C0049F855F82C0C3DF04BF8DFF8EC230E202146DFF8F03321F8020F20780392DFF874
:20575C00DC230292DFF8D823CDE9001241465A4610F020FDDFF8D053DFF8D01304F10C0304
:20577C000022286018F0E4FD07F1200060213DF0A3FBDFF8BC13384620223DF07FFD781E71
:20579C0010F8011F0029FBD1DFF8A81311223DF075FD2868E16805AD4FF6FF732A4615F0B5
:2057BC0051FB20784FF480614FF400724FF48073CDE9002141465A4624F03EFA2CF02DFC4B
:2057DC0005AE30463CF0EAFB4FF47A7007904FF49670069020788DF8140030461EF02CFAF5
:2057FC000AF118003CF062FF00208DF81400207805AE31463DF097FAB01D0DF194094FF00D
:20581C000108049058464FF0FF311AF021F90028F8D020782DF088FC002800F0D9800646B8
:20583C000078A0F1E00105291DD9482800F07A80642843D0652828D066283BD06F2800F0A0
:20585C009080922871D0942806F103074ED0C72848D0C62800F08180C52840F0B280384693
:20587C0011F09AFCADE0301DDFE801F003AB0C09AB0629F059FEA4E03DF02AFBA1E035F083
:20589C00B9FC9EE024F056FD9BE0B0880027ADF814003089ADF81600B07A874280F09180D7
:2058BC00F0682946C05D8DF8180020783DF018FA0137F1E7304630F0F3FD82E09148407AE9
:2058DC0000287ED10027F07C87427AD2706930F81700062804D1307B8A4948723DF0D4FA3F
:2058FC000137F0E7301D34F007F86AE0384621F021FD002011F050FCF0788AF8000000F0CF
:20591C00FE00062804D120783CF020F98A490860A06840F40060A06058462CF0E1F8387873
:20593C0009284ED11EF08AFE4BE0D6F81200B17BCDF8160030798DF82310318AADF824105E
:20595C00411E8DF82200022903D3032812D00F2815D1F088ADF81A0011E038462AF084FCBA
:20597C002FE0304619F0A6FE2BE000BFFFFF010400010F010498B11D08223CF057FBD6F81B
:20599C001600CDF82600F07E8DF82A00B08BADF82B00B07E8DF82D00306A0C9096F82400FA
:2059BC008DF83400F08CADF8400096F828008DF84200708DADF83800F06A0F90284607F0FC
:2059DC00E9FD304621F018FC10B930463AF077FB24F0C0FDA06881070AD5A17820788DF8D9
:2059FC00141029463DF09FF9A06820F00200A060410706D520783DF08CF9A06820F0040090
:205A1C00A060010513D59AF8000039F01BF89AF80000811E072901D3092868D980219AF8D4
:205A3C00010011F04DFAA06820F40060A060C10624D548461B213DF03FFA28467C213DF05D
:205A5C003BFA207849462A468DF8A5808DF89B803DF07DF970B99DF8480018B1BDF84A00A3
:205A7C00AAF802009DF8680010B11B98CAF808003DF00EFAA06820F01000A06001070DD5E4
:205A9C00204829460088ADF81600ADF8140020783DF017F9A06820F00800A060C1050CD57B
:205ABC0026480078012802D12CF0DAF801E021F0C7FDA06820F48070A060810505D529F0BF
:205ADC00D5FDA06820F40070A060410505D52FF03DF9A06820F48060A06000067FF592AE21
:205AFC0016F066FDA06820F08000A0608AE69AD14FF4807193E700BF44230020182600205C
:205B1C00551B0400348F0020303600207D850400B069040035DF03009F3304001D1C030040
:205B3C00837E04003E240020989000203F7E0400F8740400407D0400DC900020F6350020B1
:205B5C002DE9F04F85B00D460295044615F8011B8DF801100022DFF8E41488788DF8002016
:205B7C0004F1660B3CF082FB01902C219DF80100DFF8CC24032804F1F40604F5B07A04F589
:205B9C009C7704F5C87804F2171900F0E180072800F01382082818BF092811D00C2800F035
:205BBC00D7810F2811D0112800F04481182800F092811A2800F057811B2800F07C811AE2F2
:205BDC00294620462BF006FB15E2707ADFF8748481070AD40F2089F8020020463DF0F4FE6B
:205BFC00002872D198F80000DCE12878697800EB01223A82A878E97800EB01227A8228795A
:205C1C00697900EB0122BA82A879E97900EB0122FA82297A3976687AA97A00EB01227A83CD
:205C3C00E87A297B00EB0122BA83687BA97B00EB0122FA83E87B297C00EB01223A84687CAD
:205C5C00A97C00EB01227A84E87C297D00EB0122BA84687DA97D00EB0122DFF8EC03FA8444
:205C7C0001788A0658BF4FF01A0A13D504F5AA700490798B0391387E029021890191F88A58
:205C9C000090BB8A7A8A398A20463DF099FEE8B14FF01E0A707A41070AD40F2089F8020060
:205CBC0020463DF091FE00280FD198F8000079E152460F2120463DF07FFEF88A0090BB8A85
:205CDC007A8AA17950462EF097FC72E104F18600798A81800023BA8AC2800222F98A01819F
:205CFC0002704380A18EC91DABF81E10628E8188B1EB520F02BFC188A28E914202BF008920
:205D1C00E18EB0EB111F21D09BF81000012804BF9BF811000F280CD09BF8150000281CBF4B
:205D3C009BF811001A2804D00F218BF81A10FE217CE0FC2120463CF0EFFBF88A0090BB8A45
:205D5C007A8A398AA0793DF033FE32E110216DE0707AC10709D431781A200129707002D109
:205D7C00FF220D213DE00D2160E000208BF800008BF80600012232712946082204F1B000FD
:205D9C003DF012FE0146022204F1B8003DF00CFE04F1A8070146082238463DF005FE05464D
:205DBC00082138463DF018FE04F19C070422294638463DF0F9FD042138463DF00DFE04F13F
:205DDC00A0003DF0EDFD04F198003DF0E5FD9F48018841F0800101803078012805D1FF22E9
:205DFC00042120463DF0D4FDE3E09BF811600F2E18BF142E07D00E2E18BF0C2E03D01A2EA2
:205E1C0018BF162E11D19BF81070FF22042120463DF0BEFD012F06D18BF81A601A2E14BFA3
:205E3C00FD21FB2102E0314600E0042120463CF073FBBEE028788AF800001A286B788AF847
:205E5C00013040F0D8801668A379701C4B430026C6541068A27911FB02F101440E71A17909
:205E7C009AF80100C0E0A77910682B784F43074403F01F0617F8210F9B0938B17878D840CF
:205E9C00C00703D598F80600042805D120221A2120463DF091FD8CE0FE701068A27911FB98
:205EBC0002F10144204681F8233000213DF084F90028F0D174E0A37910684B430344D8888B
:205EDC0008B900265E701068A27911FB02F10144002008716DE068782978814204BF0140EC
:205EFC0011F0070F6DD19BF81100162806D198F80620A179134600201CF02AF8022188F85E
:205F1C000210012001994877012398F8060098F80A1088F80000BAF81C203DF035FD014661
:205F3C00BAF81800884208D3BAF81C2098F80A1098F8000001233DF027FDAAF82E00012147
:205F5C0098F8080040F0400088F80800397030E0707E012810D015F8011B31770222294681
:205F7C0004F589703DF020FD0146022204F58A703DF01AFD012070769BF8060030B93D2140
:205F9C00012289F8011089F8002012E0F07E002804BFB07E00280CD120463DF0F1FC30B9A8
:205FBC00284800784FF480411CF0BEFB01E00120F07601218DF8001021E02B780F2B16D031
:205FDC001A2B18D1A37910684B43034400205870A379126811FB03F1114408711A20F17A1D
:205FFC0001F0FB01F172A17918F0A1F9E1E7707A00F0FD007072204602993DF0BDFC9BF87E
:20601C0011001A2815D19BF8120017281CBF1028FC280ED19BF8106020463DF0A9FC012EC7
:20603C0003BF1A208BF81A00FB211A2120463CF073FA9DF8000005B0BDE8F08F780E002041
:20605C00E88F0020C70F0020200E00209C0F00202DE9F84F04460020009082460CB937F073
:20607C0037FD04F1500641F623003568022228802A736A73A5F802A0694620461DF088FA65
:20609C0008B9072040E2009901B1A860A8682061DFF87804017884F8C0107068407A31F02B
:2060BC0003FE25302076A87385F80FA07168087D022804BF002037F00BFD7068007D012879
:2060DC0002D10020002104E083280CBF062002202021287404F124076974294678791FF0A5
:2060FC009DF97068417848060AD5607DC10604D5E07F40F04000E07702E040F04000607566
:20611C0005F1600804F1300088F804A04FF01E09B97E890001F0040188F804102867607DA0
:20613C00C10653D5726851788A060BD500F0FE0060757068417811F0030F03D1E07F00F0B7
:20615C00FE00E077607D3DF00FFCA0750023287CA27DC0F38001521C00F003003DF000FC00
:20617C00A0831E22A18B01F59B7090FBF2F209FB1200C0B208B1C0F11E00411801F59B7199
:20619C0061831E22A18B01F5967188B290FBF2F209FB1200A183C0B208B1C0F11E00401861
:2061BC00A08380B2E27D618B521E50434018608305F1340A608BB4308000A866062088F8AE
:2061DC000700E17F41F00801E17720E040F00100607571684A78510744BF40F002006075A7
:2061FC00607D3DF0C1FBA0750023287CA27DC0F38001521C00F003003DF0B2FBA083A08B05
:20621C0000F59670A0830020A86688F80700A07D217D60F3050105F19000217501700322C9
:20623C00617D41708270B97E890001F0040141F003018170FA7ED20002F00802114381705A
:20625C000021C1700020C5F89800B88BC0F30B00B8837168CA7D40EA0230B8830022617D68
:20627C0001F0FE0120461AF085FA002615E004EB461B202229460BF164003BF0CBFC0BF1B9
:20629C006C00052101710BF16401A28B92000260761C78791FF0C2F8F6B2E07D401E8642E5
:2062BC00E5DB204625F08CFDE07D012804F1500609D013D3032809D03EBF04F1640068604C
:2062DC00C6F818A00AE0C5F804A007E004F16400686004F18401B161C6F838A041F624005C
:2062FC00A8860021E98605F1400AA868618B00EB8100E863022182208AF800008AF80110F7
:20631C00002194F821008AF8031000F03F008AF802007068807D012818BF022803D100F088
:20633C007F00401E04E083280CBF0620022020218AF804008AF80510DFF8D4B1DBF83C00F9
:20635C00416908687A7902EB82028118D1F80100AAF80600002068677168487810F0030FFE
:20637C0020D03DF0F9FA6867DBF818000078C1074CBF1F200F20DBF8181009788A0748BF6A
:20639C0040F02000DBF8181009784A0748BF40F04000DBF8181009780A0748BF40F0800009
:2063BC0088F81800002088F819007168594A887C00F0030088F81900B97E890001F00401AE
:2063DC00084388F81900F97EC90001F00801014341F0100188F81910107838B198F818003B
:2063FC0000F0FE0041F0400188F8180088F81910E07F3DF0B9FA84F8200020463DF0A8FAD0
:20641C00E07FC10634D5706894F820204178521C88074EBFD21EF87F12189AF80400C0F3F0
:20643C0080010023D2B200F003003DF099FA3880388800F59670C0F11E0190FBF9F009FBAA
:20645C00001987F804907168487881074CBF00204FF49B703988401838807880E86B39887D
:20647C003A795218A63200EB8200E867022001E00020E86788F81B0004F13000C5F88800D8
:20649C0005F18C0071684A78510707D504F13802026098F8190040F0200007E01E490A6845
:2064BC005168016098F8190000F0DF0088F81900A17F94F8200060F30501A17740F60B0017
:2064DC00AAF814000021AAF81610DBF8380000888000E865DBF83800008800B1072088F8B6
:2064FC000000022088F8010094F84510A8F8021070684178880744BF0121A8F802100098BB
:20651C0008B119F089FB0020BDE8F28F5A910020F86F0400880E00206C0F00202DE9FE4FA9
:20653C00DFF844B4DFF8447405469BF8000000284CD0052872D0062800F07F80072818BF2D
:20655C00082800F0F5800A2800F0E281112802D013286FD000E2DFF81824107800213DF0B5
:20657C006BFA04001EBF606D407810F00C0F2DD0216DC0064CBF886C486F016801F10805AA
:20659C000622A91C68463BF045FB287800F00F0105291BD145096946C0F380103DF0D4F9E5
:2065BC00002813D0396868463DF0CAF90646396804F138003DF0C4F986420DD0606D417846
:2065DC00C80604D440F201403DF0B6F9CAE1607B40F002006073C5E13B681E20464398195E
:2065FC0006226946C01D3BF015FB606D4178C806F1D5A17B0129EED1DFF8780381784806D8
:20661C0005D5E90703D4206D41F20A4102E0206D41F20441418041834186A3E13CF0C6FD0C
:20663C000028FAD128F0BCFC012802D001203DF07FF997E122F07DFB94E1DFF83C5328684D
:20665C003DF072F90400F7D020790328F4D1207A00F00F01072938D1DFF82023116848691B
:20667C00407A421E10425CD0607A04F10A031A5C02F03F02252A54DBA07A8209012A50D172
:20669C0010F03F0F4DD0087C3BF0B0FAE17ACA074CBF04F1110204F10B028B0748BF921D91
:2066BC000B0748BF921CC90648BFD21C1278520916214A43B2498B180A31EB608A5A4286BA
:2066DC0099898186DA89C2862BE000F00F00082827D1A07A810924D118B3A8480168087C57
:2066FC003BF084FAE17A064688071AD5062201F001015143601800F10C0168463BF08AFA2E
:20671C00207AC00969463DF01FF950B1386800F10D0168463DF004F918B90521304638F0F9
:20673C0035F82079032802D0002037F0D1F90FE1944FB8780024FF281BD03BF057FA8046EE
:20675C0008F16C09D9F804003DF0EEF82A460179032901D011000CD08368197801F0030083
:20677C008D06009003D50124009818B9CDE01000FAD0F7E05D7803F1020A34B31AF8010B3C
:20679C00814B01902C2098F806C01E6810FB0CFC66444FF0010E86F805E0002A1E6898F8AA
:2067BC0006E006F11A0C019E10FB0EFE06F01F060CF80E6098F806601B6810FB06F01844A1
:2067DC00019BC3F38113C3761AD10098032808F217161AD0ADB199F8000068B108F1F400CA
:2067FC000278012A0DD19BF80020072A04D0082A04BFC078012804D13D2171700123337011
:20681C00B0E062480278012AFAD098F8940000283CD030782D1F0128EDB2F1D053462A46D5
:20683C00404634F081FB00281EBF59490878002813D13D2171700120564A30701178012990
:20685C000AD1554C20784FF4805134F0F9FB20784FF480511BF068FF84E05049086880478A
:20687C0001904FF4D07098F80620796842438818002180F8411108F59E7001688079490883
:20689C0027F010FE464A019811688847009803281DD044494869007882070DD598F8940051
:2068BC00002814BF281D28464A691178CA0748BFC01C1AF8000000E0812089F808002A4692
:2068DC000098C3B2B87851460DF0C8FD1DE09AF800001CB11B2804BF022D01251C2803D236
:2068FC0031490B5C9D4205D0B070072140463BF013FE0AE09BF8000008285146404602D140
:20691C003CF002FC01E0FFF71BF9D9F8040020E0264C207830B3264D28683DF005F808B39C
